S0160000436F6F6C65725F50726F6A6563742E7372656374
S11300000C942A000C9447000C9447000C9447006D
S11300100C9447000C9447000C9447000C94470040
S11300200C9447000C9447000C9447000C94470030
S11300300C9447000C9447000C9447000C94470020
S11300400C9447000C9447000C9447000C94470010
S11300500C94470011241FBECFE5D8E0DEBFCDBF0E
S113006010E0A0E6B0E0E0EBF9E002C005900D92EC
S1130070AE36B107D9F720E0AEE6B0E001C01D927C
S1130080AF36B207E1F70E943D020C94D6040C94FB
S1130090000086B1806886B986B1816086B986B170
S11300A0826086B986B1846086B9089586B1806419
S11300B086B93699FECF84B195B1089584B3816031
S11300C084BB0E9436010E9449000E9479020E946A
S11300D0F4020895833220F4833220F480E00895FA
S11300E081E0089582E00895CF93C82F80E80E94AC
S11300F0C6006C2F70E080E090E00E94F30183E47E
S11301000E9470018C2F0E947D0285B3816085BBA3
S1130110C15FC0936E0080EC0E94C60060916E00C7
S113012070E080E090E00E94F30180E690E00E949D
S1130130E00180916E000E940703CF910895CF9350
S1130140C82F85B38E7F85BB80E00E94070380E8BB
S11301500E94C6006C2F70E080E090E00E94F301E2
S113016083E40E9470018C2F0E947D0280EC0E9427
S1130170C60060916E0070E080E090E00E94F301A0
S113018080E690E00E94E001CF91089598B3977FB4
S113019098BB882324F498B3906898BB03C098B3A1
S11301A09F7798BB86FF04C098B3906498BB03C044
S11301B098B39F7B98BB85FF04C098B3906298BBAB
S11301C003C098B39F7D98BB84FF04C098B390612B
S11301D098BB03C098B39F7E98BB98B3946098BBB8
S11301E0EFE9FFE03197F1F700C0000098B39B7F7F
S11301F098BBEFE9FFE03197F1F700C0000083FFFF
S113020004C098B3906898BB03C098B39F7798BB19
S113021082FF04C098B3906498BB03C098B39F7BDB
S113022098BB81FF04C098B3906298BB03C098B395
S11302309F7D98BB80FF04C088B3806188BB03C0E6
S113024088B38F7E88BB88B3846088BB8FE99FE0C6
S11302500197F1F700C0000088B38B7F88BBEFE9FA
S1130260FFE03197F1F700C00000089587B38C6F69
S113027087BB83E00E94C6008FE79EE30197F1F7F6
S113028000C0000083E00E94C6008FE79EE3019750
S1130290F1F700C0000083E00E94C6008FE79EE3F0
S11302A00197F1F700C0000082E00E94C60088E2D6
S11302B00E94C60088E00E94C60081E00E94C60039
S11302C086E00E94C6008CE00E94C6009FEF29EFE2
S11302D080E0915020408040E1F700C00000089584
S11302E098B3986098BB882324F498B3906898BB1B
S11302F003C098B39F7798BB86FF04C098B39064FB
S113030098BB03C098B39F7B98BB85FF04C098B388
S1130310906298BB03C098B39F7D98BB84FF04C0D0
S113032098B3906198BB03C098B39F7E98BB98B371
S1130330946098BBEFE9FFE03197F1F700C000004B
S113034098B39B7F98BBEFE9FFE03197F1F700C0CA
S1130350000083FF04C098B3906898BB03C098B3AF
S11303609F7798BB82FF04C098B3906498BB03C086
S113037098B39F7B98BB81FF04C098B3906298BBED
S113038003C098B39F7D98BB80FF04C088B380618D
S113039088BB03C088B38F7E88BB88B3846088BB66
S11303A08FE99FE00197F1F700C0000088B38B7FCD
S11303B088BBEFE9FFE03197F1F700C00000089532
S11303C00F931F93CF938C01C0E003C00E94700170
S11303D0CF5FF801EC0FF11D80818111F7CFCF9130
S11303E01F910F9108951F93CF93DF93CDB7DEB77D
S11303F02A970FB6F894DEBF0FBECDBF6115710505
S113040081059105D1F480E30E9470012CC02AE09B
S113041030E040E050E00E94B404E1E0F0E0EC0F92
S1130420FD1FE10FF11D17FDFA95605D6083622FDA
S1130430732F842F952F1F5F01C010E06115710584
S11304408105910521F711500CC0E1E0F0E0EC0FBB
S1130450FD1FE10FF11D17FDFA9580810E947001C7
S11304601150112394F72A960FB6F894DEBF0FBEED
S1130470CDBFDF91CF911F9108950E945E000E942D
S11304805600BC0180E090E00E94B90320E030E017
S113049040E650E40E9418030E948A03862F0E94BB
S11304A06A00813099F40E945600BC0180E090E01B
S11304B00E94B90320E030E040E650E40E941803B3
S11304C00E948A03862F0E947400D9CF0E9456008E
S11304D0BC0180E090E00E94B90320E030E040E6F7
S11304E050E40E9418030E948A03862F0E949F00F2
S11304F0C6CF8AB38C6F8ABB08959DEC899F912DDA
S11305001124969596959695990F292F220F220FCF
S1130510920F282F291B922F2BB324602BBB2BB3B4
S1130520277F2BBB90FF04C02BB320612BBB03C0E0
S11305302BB32F7E2BBB91FF04C02BB320622BBBAC
S113054003C02BB32F7D2BBB92FF04C02BB32064BD
S11305502BBB03C02BB32F7B2BBB93FF04C09BB3DC
S113056090689BBB03C09BB39F779BBBEFE3FCE905
S11305703197F1F700C000009DEC899F812D112473
S11305808695869586959BB39B7F9BBB9BB3986012
S11305909BBB80FF04C09BB390619BBB03C09BB318
S11305A09F7E9BBB81FF04C09BB390629BBB03C037
S11305B09BB39F7D9BBB82FF04C09BB390649BBB9A
S11305C003C09BB39F7B9BBB83FF04C08BB380683A
S11305D08BBB03C08BB38F778BBB8FE39CE90197F5
S11305E0F1F700C00000089581B3806281BB8FB52C
S11305F080688FBD8FB581608FBD8FB582608FBDE0
S11306008EB588608EBD8EB581608EBD0895682FCD
S113061070E080E090E00E94BB0324E13EEA43E204
S113062051E40E9447040E948A037BBD6ABD089579
S11306300E942C030C940D040E94060458F00E949E
S1130640FF0340F029F45F3F29F00C94F6035111A5
S11306500C9441040C94FC030E941E0468F3992337
S1130660B1F3552391F3951B550BBB27AA276217AA
S11306707307840738F09F5F5F4F220F331F441FB7
S1130680AA1FA9F335D00E2E3AF0E0E832D09150EB
S11306905040E695001CCAF72BD0FE2F29D0660FD8
S11306A0771F881FBB1F261737074807AB07B0E81B
S11306B009F0BB0B802DBF01FF2793585F4F3AF021
S11306C09E3F510578F00C94F6030C9441045F3F6F
S11306D0E4F3983ED4F3869577956795B795F795A7
S11306E09F5FC9F7880F911D9695879597F908958F
S11306F0E1E0660F771F881FBB1F6217730784072B
S1130700BA0720F0621B730B840BBA0BEE1F88F739
S1130710E09508950E94260488F09F5798F0B92F19
S11307209927B751B0F0E1F0660F771F881F991F22
S11307301AF0BA95C9F714C0B13091F00E94400480
S1130740B1E008950C944004672F782F8827B85F90
S113075039F0B93FCCF3869577956795B395D9F77A
S11307603EF490958095709561957F4F8F4F9F4F84
S11307700895E89409C097FB3EF490958095709590
S113078061957F4F8F4F9F4F9923A9F0F92F96E9D9
S1130790BB279395F695879577956795B795F1114E
S11307A0F8CFFAF4BB0F11F460FF1BC06F5F7F4FEB
S11307B08F4F9F4F16C0882311F096E911C07723FD
S11307C021F09EE8872F762F05C0662371F096E806
S11307D0862F70E060E02AF09A95660F771F881FD5
S11307E0DAF7880F9695879597F9089597F99F6793
S11307F080E870E060E008959FEF80EC08950024A5
S11308000A941616170618060906089500240A9471
S113081012161306140605060895092E0394000CF7
S113082011F4882352F0BB0F40F4BF2B11F460FF86
S113083004C06F5F7F4F8F4F9F4F089557FD9058AF
S1130840440F551F59F05F3F71F04795880F97FB90
S1130850991F61F09F3F79F087950895121613064A
S11308601406551FF2CF4695F1DF08C01616170679
S11308701806991FF1CF86957105610508940895AE
S1130880E894BB2766277727CB0197F908950E9440
S11308905A040C940D040E94FF0338F00E940604CD
S11308A020F0952311F00C94F6030C94FC0311240E
S11308B00C9441040E941E0470F3959FC1F3950F9C
S11308C050E0551F629FF001729FBB27F00DB11DD0
S11308D0639FAA27F00DB11DAA1F649F6627B00D60
S11308E0A11D661F829F2227B00DA11D621F739F49
S11308F0B00DA11D621F839FA00D611D221F749F57
S11309003327A00D611D231F849F600D211D822F9D
S1130910762F6A2F11249F5750409AF0F1F08823C4
S11309204AF0EE0FFF1FBB1F661F771F881F9150F1
S11309305040A9F79E3F510580F00C94F6030C94A7
S113094041045F3FE4F3983ED4F386957795679529
S1130950B795F795E7959F5FC1F7FE2B880F911D1B
S11309609695879597F90895A1E21A2EAA1BBB1BA9
S1130970FD010DC0AA1FBB1FEE1FFF1FA217B30767
S1130980E407F50720F0A21BB30BE40BF50B661F7D
S1130990771F881F991F1A9469F760957095809541
S11309A090959B01AC01BD01CF010895F894FFCF50
S11109B0202064757479206379636C650000FF
S9030000FC
